{
  "contractName": "InvoiceNFT",
  "abi": [
    {
      "inputs": [],
      "stateMutability": "nonpayable",
      "type": "constructor"
    },
    {
      "anonymous": false,
      "inputs": [
        {
          "indexed": true,
          "internalType": "address",
          "name": "owner",
          "type": "address"
        },
        {
          "indexed": true,
          "internalType": "address",
          "name": "approved",
          "type": "address"
        },
        {
          "indexed": true,
          "internalType": "uint256",
          "name": "tokenId",
          "type": "uint256"
        }
      ],
      "name": "Approval",
      "type": "event"
    },
    {
      "anonymous": false,
      "inputs": [
        {
          "indexed": true,
          "internalType": "address",
          "name": "owner",
          "type": "address"
        },
        {
          "indexed": true,
          "internalType": "address",
          "name": "operator",
          "type": "address"
        },
        {
          "indexed": false,
          "internalType": "bool",
          "name": "approved",
          "type": "bool"
        }
      ],
      "name": "ApprovalForAll",
      "type": "event"
    },
    {
      "anonymous": false,
      "inputs": [
        {
          "indexed": true,
          "internalType": "address",
          "name": "previousOwner",
          "type": "address"
        },
        {
          "indexed": true,
          "internalType": "address",
          "name": "newOwner",
          "type": "address"
        }
      ],
      "name": "OwnershipTransferred",
      "type": "event"
    },
    {
      "anonymous": false,
      "inputs": [
        {
          "indexed": true,
          "internalType": "address",
          "name": "from",
          "type": "address"
        },
        {
          "indexed": true,
          "internalType": "address",
          "name": "to",
          "type": "address"
        },
        {
          "indexed": true,
          "internalType": "uint256",
          "name": "tokenId",
          "type": "uint256"
        }
      ],
      "name": "Transfer",
      "type": "event"
    },
    {
      "inputs": [
        {
          "internalType": "address",
          "name": "to",
          "type": "address"
        },
        {
          "internalType": "uint256",
          "name": "tokenId",
          "type": "uint256"
        }
      ],
      "name": "approve",
      "outputs": [],
      "stateMutability": "nonpayable",
      "type": "function"
    },
    {
      "inputs": [
        {
          "internalType": "address",
          "name": "owner",
          "type": "address"
        }
      ],
      "name": "balanceOf",
      "outputs": [
        {
          "internalType": "uint256",
          "name": "",
          "type": "uint256"
        }
      ],
      "stateMutability": "view",
      "type": "function"
    },
    {
      "inputs": [
        {
          "internalType": "uint256",
          "name": "",
          "type": "uint256"
        }
      ],
      "name": "exists",
      "outputs": [
        {
          "internalType": "bool",
          "name": "",
          "type": "bool"
        }
      ],
      "stateMutability": "view",
      "type": "function"
    },
    {
      "inputs": [
        {
          "internalType": "uint256",
          "name": "tokenId",
          "type": "uint256"
        }
      ],
      "name": "getApproved",
      "outputs": [
        {
          "internalType": "address",
          "name": "",
          "type": "address"
        }
      ],
      "stateMutability": "view",
      "type": "function"
    },
    {
      "inputs": [
        {
          "internalType": "address",
          "name": "owner",
          "type": "address"
        },
        {
          "internalType": "address",
          "name": "operator",
          "type": "address"
        }
      ],
      "name": "isApprovedForAll",
      "outputs": [
        {
          "internalType": "bool",
          "name": "",
          "type": "bool"
        }
      ],
      "stateMutability": "view",
      "type": "function"
    },
    {
      "inputs": [],
      "name": "name",
      "outputs": [
        {
          "internalType": "string",
          "name": "",
          "type": "string"
        }
      ],
      "stateMutability": "view",
      "type": "function"
    },
    {
      "inputs": [],
      "name": "owner",
      "outputs": [
        {
          "internalType": "address",
          "name": "",
          "type": "address"
        }
      ],
      "stateMutability": "view",
      "type": "function"
    },
    {
      "inputs": [
        {
          "internalType": "uint256",
          "name": "tokenId",
          "type": "uint256"
        }
      ],
      "name": "ownerOf",
      "outputs": [
        {
          "internalType": "address",
          "name": "",
          "type": "address"
        }
      ],
      "stateMutability": "view",
      "type": "function"
    },
    {
      "inputs": [],
      "name": "renounceOwnership",
      "outputs": [],
      "stateMutability": "nonpayable",
      "type": "function"
    },
    {
      "inputs": [
        {
          "internalType": "address",
          "name": "from",
          "type": "address"
        },
        {
          "internalType": "address",
          "name": "to",
          "type": "address"
        },
        {
          "internalType": "uint256",
          "name": "tokenId",
          "type": "uint256"
        }
      ],
      "name": "safeTransferFrom",
      "outputs": [],
      "stateMutability": "nonpayable",
      "type": "function"
    },
    {
      "inputs": [
        {
          "internalType": "address",
          "name": "from",
          "type": "address"
        },
        {
          "internalType": "address",
          "name": "to",
          "type": "address"
        },
        {
          "internalType": "uint256",
          "name": "tokenId",
          "type": "uint256"
        },
        {
          "internalType": "bytes",
          "name": "_data",
          "type": "bytes"
        }
      ],
      "name": "safeTransferFrom",
      "outputs": [],
      "stateMutability": "nonpayable",
      "type": "function"
    },
    {
      "inputs": [
        {
          "internalType": "address",
          "name": "operator",
          "type": "address"
        },
        {
          "internalType": "bool",
          "name": "approved",
          "type": "bool"
        }
      ],
      "name": "setApprovalForAll",
      "outputs": [],
      "stateMutability": "nonpayable",
      "type": "function"
    },
    {
      "inputs": [
        {
          "internalType": "bytes4",
          "name": "interfaceId",
          "type": "bytes4"
        }
      ],
      "name": "supportsInterface",
      "outputs": [
        {
          "internalType": "bool",
          "name": "",
          "type": "bool"
        }
      ],
      "stateMutability": "view",
      "type": "function"
    },
    {
      "inputs": [],
      "name": "symbol",
      "outputs": [
        {
          "internalType": "string",
          "name": "",
          "type": "string"
        }
      ],
      "stateMutability": "view",
      "type": "function"
    },
    {
      "inputs": [
        {
          "internalType": "uint256",
          "name": "tokenId",
          "type": "uint256"
        }
      ],
      "name": "tokenURI",
      "outputs": [
        {
          "internalType": "string",
          "name": "",
          "type": "string"
        }
      ],
      "stateMutability": "view",
      "type": "function"
    },
    {
      "inputs": [
        {
          "internalType": "address",
          "name": "from",
          "type": "address"
        },
        {
          "internalType": "address",
          "name": "to",
          "type": "address"
        },
        {
          "internalType": "uint256",
          "name": "tokenId",
          "type": "uint256"
        }
      ],
      "name": "transferFrom",
      "outputs": [],
      "stateMutability": "nonpayable",
      "type": "function"
    },
    {
      "inputs": [
        {
          "internalType": "address",
          "name": "newOwner",
          "type": "address"
        }
      ],
      "name": "transferOwnership",
      "outputs": [],
      "stateMutability": "nonpayable",
      "type": "function"
    },
    {
      "inputs": [
        {
          "internalType": "string",
          "name": "_tokenURI",
          "type": "string"
        },
        {
          "internalType": "uint256",
          "name": "_LoanAmount",
          "type": "uint256"
        },
        {
          "internalType": "uint256",
          "name": "_InvoiceValue",
          "type": "uint256"
        },
        {
          "internalType": "uint256",
          "name": "_duration",
          "type": "uint256"
        }
      ],
      "name": "mint",
      "outputs": [
        {
          "internalType": "uint256",
          "name": "",
          "type": "uint256"
        }
      ],
      "stateMutability": "nonpayable",
      "type": "function"
    },
    {
      "inputs": [
        {
          "internalType": "address",
          "name": "_owner",
          "type": "address"
        },
        {
          "internalType": "string",
          "name": "_tokenURI",
          "type": "string"
        },
        {
          "internalType": "uint256",
          "name": "_tokenId",
          "type": "uint256"
        },
        {
          "internalType": "uint256",
          "name": "_InvoiceValue",
          "type": "uint256"
        },
        {
          "internalType": "uint256",
          "name": "_LoanAmount",
          "type": "uint256"
        },
        {
          "internalType": "uint256",
          "name": "_Duration",
          "type": "uint256"
        }
      ],
      "name": "Metadata",
      "outputs": [],
      "stateMutability": "nonpayable",
      "type": "function"
    },
    {
      "inputs": [
        {
          "internalType": "uint256",
          "name": "_tokenId",
          "type": "uint256"
        }
      ],
      "name": "viewInvoiceById",
      "outputs": [
        {
          "components": [
            {
              "internalType": "address",
              "name": "owner",
              "type": "address"
            },
            {
              "internalType": "string",
              "name": "tokenURI",
              "type": "string"
            },
            {
              "internalType": "uint256",
              "name": "tokenId",
              "type": "uint256"
            },
            {
              "internalType": "uint256",
              "name": "InvoiceValue",
              "type": "uint256"
            },
            {
              "internalType": "uint256",
              "name": "LoanAmount",
              "type": "uint256"
            },
            {
              "internalType": "uint256",
              "name": "Duration",
              "type": "uint256"
            }
          ],
          "internalType": "struct InvoiceNFT.Invoice",
          "name": "",
          "type": "tuple"
        }
      ],
      "stateMutability": "view",
      "type": "function"
    },
    {
      "inputs": [],
      "name": "getAllInvoices",
      "outputs": [
        {
          "components": [
            {
              "internalType": "address",
              "name": "owner",
              "type": "address"
            },
            {
              "internalType": "string",
              "name": "tokenURI",
              "type": "string"
            },
            {
              "internalType": "uint256",
              "name": "tokenId",
              "type": "uint256"
            },
            {
              "internalType": "uint256",
              "name": "InvoiceValue",
              "type": "uint256"
            },
            {
              "internalType": "uint256",
              "name": "LoanAmount",
              "type": "uint256"
            },
            {
              "internalType": "uint256",
              "name": "Duration",
              "type": "uint256"
            }
          ],
          "internalType": "struct InvoiceNFT.Invoice[]",
          "name": "",
          "type": "tuple[]"
        }
      ],
      "stateMutability": "view",
      "type": "function"
    }
  ],
  "bytecode": "0x60806040523480156200001157600080fd5b506040518060400160405280600781526020017f496e766f696365000000000000000000000000000000000000000000000000008152506040518060400160405280600481526020017f494e565400000000000000000000000000000000000000000000000000000000815250620000966301ffc9a760e01b6200019260201b60201c565b8160019080519060200190620000ae92919062000289565b508060029080519060200190620000c792919062000289565b5050506000620000dc6200026a60201b60201c565b905080600860006101000a81548173ffffffffffffffffffffffffffffffffffffffff021916908373ffffffffffffffffffffffffffffffffffffffff1602179055508073ffffffffffffffffffffffffffffffffffffffff16600073ffffffffffffffffffffffffffffffffffffffff167f8be0079c531659141344cd1fd0a4f28419497f9722a3daafe3b4186f6b6457e060405160405180910390a3506200018b6200027260201b60201c565b5062000413565b63ffffffff60e01b817bffffffffffffffffffffffffffffffffffffffffffffffffffffffff19161415620001fe576040517f08c379a0000000000000000000000000000000000000000000000000000000008152600401620001f5906200037b565b60405180910390fd5b6001600080837bffffffffffffffffffffffffffffffffffffffffffffffffffffffff19167bffffffffffffffffffffffffffffffffffffffffffffffffffffffff1916815260200190815260200160002060006101000a81548160ff02191690831515021790555050565b600033905090565b606060405180602001604052806000815250905090565b8280546200029790620003ae565b90600052602060002090601f016020900481019282620002bb576000855562000307565b82601f10620002d657805160ff191683800117855562000307565b8280016001018555821562000307579182015b8281111562000306578251825591602001919060010190620002e9565b5b5090506200031691906200031a565b5090565b5b80821115620003355760008160009055506001016200031b565b5090565b600062000348601c836200039d565b91507f4552433136353a20696e76616c696420696e74657266616365206964000000006000830152602082019050919050565b60006020820190508181036000830152620003968162000339565b9050919050565b600082825260208201905092915050565b60006002820490506001821680620003c757607f821691505b60208210811415620003de57620003dd620003e4565b5b50919050565b7f4e487b7100000000000000000000000000000000000000000000000000000000600052602260045260246000fd5b6136b780620004236000396000f3fe608060405234801561001057600080fd5b50600436106101375760003560e01c80636352211e116100b8578063a22cb4651161007c578063a22cb4651461034e578063b88d4fde1461036a578063c87b56dd14610386578063e7095f2d146103b6578063e985e9c5146103e6578063f2fde38b1461041657610137565b80636352211e146102a857806370a08231146102d8578063715018a6146103085780638da5cb5b1461031257806395d89b411461033057610137565b80631d481afc116100ff5780631d481afc1461020657806323b872dd1461022257806342842e0e1461023e5780634f558e791461025a578063570bdad61461028a57610137565b806301ffc9a71461013c578063027a22551461016c57806306fdde031461019c578063081812fc146101ba578063095ea7b3146101ea575b600080fd5b61015660048036038101906101519190612496565b610432565b6040516101639190612f29565b60405180910390f35b610186600480360381019061018191906124e8565b610514565b60405161019391906131a8565b60405180910390f35b6101a461057b565b6040516101b19190612f44565b60405180910390f35b6101d460048036038101906101cf9190612563565b61060d565b6040516101e19190612ea0565b60405180910390f35b61020460048036038101906101ff919061245a565b610692565b005b610220600480360381019061021b91906123b9565b6107aa565b005b61023c600480360381019061023791906122b3565b6109a4565b005b610258600480360381019061025391906122b3565b610a04565b005b610274600480360381019061026f9190612563565b610a24565b6040516102819190612f29565b60405180910390f35b610292610a44565b60405161029f9190612f07565b60405180910390f35b6102c260048036038101906102bd9190612563565b610bb3565b6040516102cf9190612ea0565b60405180910390f35b6102f260048036038101906102ed919061224e565b610c65565b6040516102ff91906131a8565b60405180910390f35b610310610d1d565b005b61031a610e5a565b6040516103279190612ea0565b60405180910390f35b610338610e84565b6040516103459190612f44565b60405180910390f35b6103686004803603810190610363919061237d565b610f16565b005b610384600480360381019061037f9190612302565b611097565b005b6103a0600480360381019061039b9190612563565b6110f9565b6040516103ad9190612f44565b60405180910390f35b6103d060048036038101906103cb9190612563565b6111a0565b6040516103dd9190613186565b60405180910390f35b61040060048036038101906103fb9190612277565b6112e3565b60405161040d9190612f29565b60405180910390f35b610430600480360381019061042b919061224e565b611377565b005b60007f80ac58cd000000000000000000000000000000000000000000000000000000007bffffffffffffffffffffffffffffffffffffffffffffffffffffffff1916827bffffffffffffffffffffffffffffffffffffffffffffffffffffffff191614806104fd57507f5b5e139f000000000000000000000000000000000000000000000000000000007bffffffffffffffffffffffffffffffffffffffffffffffffffffffff1916827bffffffffffffffffffffffffffffffffffffffffffffffffffffffff1916145b8061050d575061050c82611523565b5b9050919050565b6000610520600961158a565b600061052c60096115a0565b905061053833826115ae565b610542818761177c565b600062015180846105539190613368565b4261055e91906132e1565b905061056e338884888a866107aa565b8192505050949350505050565b60606001805461058a906134ac565b80601f01602080910402602001604051908101604052809291908181526020018280546105b6906134ac565b80156106035780601f106105d857610100808354040283529160200191610603565b820191906000526020600020905b8154815290600101906020018083116105e657829003601f168201915b5050505050905090565b6000610618826117f0565b610657576040517f08c379a000000000000000000000000000000000000000000000000000000000815260040161064e906130c6565b60405180910390fd5b6005600083815260200190815260200160002060009054906101000a900473ffffffffffffffffffffffffffffffffffffffff169050919050565b600061069d82610bb3565b90508073ffffffffffffffffffffffffffffffffffffffff168373ffffffffffffffffffffffffffffffffffffffff16141561070e576040517f08c379a000000000000000000000000000000000000000000000000000000000815260040161070590613146565b60405180910390fd5b8073ffffffffffffffffffffffffffffffffffffffff1661072d61185c565b73ffffffffffffffffffffffffffffffffffffffff16148061075c575061075b8161075661185c565b6112e3565b5b61079b576040517f08c379a000000000000000000000000000000000000000000000000000000000815260040161079290613026565b60405180910390fd5b6107a58383611864565b505050565b60006040518060c001604052808873ffffffffffffffffffffffffffffffffffffffff16815260200187815260200186815260200185815260200184815260200183815250905080600a600087815260200190815260200160002060008201518160000160006101000a81548173ffffffffffffffffffffffffffffffffffffffff021916908373ffffffffffffffffffffffffffffffffffffffff1602179055506020820151816001019080519060200190610868929190612026565b5060408201518160020155606082015181600301556080820151816004015560a08201518160050155905050600b81908060018154018082558091505060019003906000526020600020906006020160009091909190915060008201518160000160006101000a81548173ffffffffffffffffffffffffffffffffffffffff021916908373ffffffffffffffffffffffffffffffffffffffff1602179055506020820151816001019080519060200190610923929190612026565b5060408201518160020155606082015181600301556080820151816004015560a082015181600501555050600d85908060018154018082558091505060019003906000526020600020016000909190919091505560011515600c600087815260200190815260200160002060009054906101000a9050505050505050505050565b6109b56109af61185c565b8261191d565b6109f4576040517f08c379a00000000000000000000000000000000000000000000000000000000081526004016109eb90613166565b60405180910390fd5b6109ff8383836119fb565b505050565b610a1f83838360405180602001604052806000815250611097565b505050565b600c6020528060005260406000206000915054906101000a900460ff1681565b6060600b805480602002602001604051908101604052809291908181526020016000905b82821015610baa57838290600052602060002090600602016040518060c00160405290816000820160009054906101000a900473ffffffffffffffffffffffffffffffffffffffff1673ffffffffffffffffffffffffffffffffffffffff1673ffffffffffffffffffffffffffffffffffffffff168152602001600182018054610af1906134ac565b80601f0160208091040260200160405190810160405280929190818152602001828054610b1d906134ac565b8015610b6a5780601f10610b3f57610100808354040283529160200191610b6a565b820191906000526020600020905b815481529060010190602001808311610b4d57829003601f168201915b5050505050815260200160028201548152602001600382015481526020016004820154815260200160058201548152505081526020019060010190610a68565b50505050905090565b6000806003600084815260200190815260200160002060009054906101000a900473ffffffffffffffffffffffffffffffffffffffff169050600073ffffffffffffffffffffffffffffffffffffffff168173ffffffffffffffffffffffffffffffffffffffff161415610c5c576040517f08c379a0000000000000000000000000000000000000000000000000000000008152600401610c5390613066565b60405180910390fd5b80915050919050565b60008073ffffffffffffffffffffffffffffffffffffffff168273ffffffffffffffffffffffffffffffffffffffff161415610cd6576040517f08c379a0000000000000000000000000000000000000000000000000000000008152600401610ccd90613046565b60405180910390fd5b600460008373ffffffffffffffffffffffffffffffffffffffff1673ffffffffffffffffffffffffffffffffffffffff168152602001908152602001600020549050919050565b610d2561185c565b73ffffffffffffffffffffffffffffffffffffffff16610d43610e5a565b73ffffffffffffffffffffffffffffffffffffffff1614610d99576040517f08c379a0000000000000000000000000000000000000000000000000000000008152600401610d90906130e6565b60405180910390fd5b600073ffffffffffffffffffffffffffffffffffffffff16600860009054906101000a900473ffffffffffffffffffffffffffffffffffffffff1673ffffffffffffffffffffffffffffffffffffffff167f8be0079c531659141344cd1fd0a4f28419497f9722a3daafe3b4186f6b6457e060405160405180910390a36000600860006101000a81548173ffffffffffffffffffffffffffffffffffffffff021916908373ffffffffffffffffffffffffffffffffffffffff160217905550565b6000600860009054906101000a900473ffffffffffffffffffffffffffffffffffffffff16905090565b606060028054610e93906134ac565b80601f0160208091040260200160405190810160405280929190818152602001828054610ebf906134ac565b8015610f0c5780601f10610ee157610100808354040283529160200191610f0c565b820191906000526020600020905b815481529060010190602001808311610eef57829003601f168201915b5050505050905090565b610f1e61185c565b73ffffffffffffffffffffffffffffffffffffffff168273ffffffffffffffffffffffffffffffffffffffff161415610f8c576040517f08c379a0000000000000000000000000000000000000000000000000000000008152600401610f8390612fe6565b60405180910390fd5b8060066000610f9961185c565b73ffffffffffffffffffffffffffffffffffffffff1673ffffffffffffffffffffffffffffffffffffffff16815260200190815260200160002060008473ffffffffffffffffffffffffffffffffffffffff1673ffffffffffffffffffffffffffffffffffffffff16815260200190815260200160002060006101000a81548160ff0219169083151502179055508173ffffffffffffffffffffffffffffffffffffffff1661104661185c565b73ffffffffffffffffffffffffffffffffffffffff167f17307eab39ab6107e8899845ad3d59bd9653f200f220920489ca2b5937696c318360405161108b9190612f29565b60405180910390a35050565b6110a86110a261185c565b8361191d565b6110e7576040517f08c379a00000000000000000000000000000000000000000000000000000000081526004016110de90613166565b60405180910390fd5b6110f384848484611c57565b50505050565b6060611104826117f0565b611143576040517f08c379a000000000000000000000000000000000000000000000000000000000815260040161113a90613126565b60405180910390fd5b600061114d611cb3565b9050600081511161116d5760405180602001604052806000815250611198565b8061117784611cca565b604051602001611188929190612e7c565b6040516020818303038152906040525b915050919050565b6111a86120ac565b6000600a60008481526020019081526020016000206040518060c00160405290816000820160009054906101000a900473ffffffffffffffffffffffffffffffffffffffff1673ffffffffffffffffffffffffffffffffffffffff1673ffffffffffffffffffffffffffffffffffffffff16815260200160018201805461122e906134ac565b80601f016020809104026020016040519081016040528092919081815260200182805461125a906134ac565b80156112a75780601f1061127c576101008083540402835291602001916112a7565b820191906000526020600020905b81548152906001019060200180831161128a57829003601f168201915b50505050508152602001600282015481526020016003820154815260200160048201548152602001600582015481525050905080915050919050565b6000600660008473ffffffffffffffffffffffffffffffffffffffff1673ffffffffffffffffffffffffffffffffffffffff16815260200190815260200160002060008373ffffffffffffffffffffffffffffffffffffffff1673ffffffffffffffffffffffffffffffffffffffff16815260200190815260200160002060009054906101000a900460ff16905092915050565b61137f61185c565b73ffffffffffffffffffffffffffffffffffffffff1661139d610e5a565b73ffffffffffffffffffffffffffffffffffffffff16146113f3576040517f08c379a00000000000000000000000000000000000000000000000000000000081526004016113ea906130e6565b60405180910390fd5b600073ffffffffffffffffffffffffffffffffffffffff168173ffffffffffffffffffffffffffffffffffffffff161415611463576040517f08c379a000000000000000000000000000000000000000000000000000000000815260040161145a90612f86565b60405180910390fd5b8073ffffffffffffffffffffffffffffffffffffffff16600860009054906101000a900473ffffffffffffffffffffffffffffffffffffffff1673ffffffffffffffffffffffffffffffffffffffff167f8be0079c531659141344cd1fd0a4f28419497f9722a3daafe3b4186f6b6457e060405160405180910390a380600860006101000a81548173ffffffffffffffffffffffffffffffffffffffff021916908373ffffffffffffffffffffffffffffffffffffffff16021790555050565b6000806000837bffffffffffffffffffffffffffffffffffffffffffffffffffffffff19167bffffffffffffffffffffffffffffffffffffffffffffffffffffffff1916815260200190815260200160002060009054906101000a900460ff169050919050565b6001816000016000828254019250508190555050565b600081600001549050919050565b600073ffffffffffffffffffffffffffffffffffffffff168273ffffffffffffffffffffffffffffffffffffffff16141561161e576040517f08c379a0000000000000000000000000000000000000000000000000000000008152600401611615906130a6565b60405180910390fd5b611627816117f0565b15611667576040517f08c379a000000000000000000000000000000000000000000000000000000000815260040161165e90612fa6565b60405180910390fd5b61167360008383611e77565b6001600460008473ffffffffffffffffffffffffffffffffffffffff1673ffffffffffffffffffffffffffffffffffffffff16815260200190815260200160002060008282546116c391906132e1565b92505081905550816003600083815260200190815260200160002060006101000a81548173ffffffffffffffffffffffffffffffffffffffff021916908373ffffffffffffffffffffffffffffffffffffffff160217905550808273ffffffffffffffffffffffffffffffffffffffff16600073ffffffffffffffffffffffffffffffffffffffff167fddf252ad1be2c89b69c2b068fc378daa952ba7f163c4a11628f55a4df523b3ef60405160405180910390a45050565b611785826117f0565b6117c4576040517f08c379a00000000000000000000000000000000000000000000000000000000081526004016117bb90613086565b60405180910390fd5b806007600084815260200190815260200160002090805190602001906117eb929190612026565b505050565b60008073ffffffffffffffffffffffffffffffffffffffff166003600084815260200190815260200160002060009054906101000a900473ffffffffffffffffffffffffffffffffffffffff1673ffffffffffffffffffffffffffffffffffffffff1614159050919050565b600033905090565b816005600083815260200190815260200160002060006101000a81548173ffffffffffffffffffffffffffffffffffffffff021916908373ffffffffffffffffffffffffffffffffffffffff160217905550808273ffffffffffffffffffffffffffffffffffffffff166118d783610bb3565b73ffffffffffffffffffffffffffffffffffffffff167f8c5be1e5ebec7d5bd14f71427d1e84f3dd0314c0f7b2291e5b200ac8c7c3b92560405160405180910390a45050565b6000611928826117f0565b611967576040517f08c379a000000000000000000000000000000000000000000000000000000000815260040161195e90613006565b60405180910390fd5b600061197283610bb3565b90508073ffffffffffffffffffffffffffffffffffffffff168473ffffffffffffffffffffffffffffffffffffffff1614806119e157508373ffffffffffffffffffffffffffffffffffffffff166119c98461060d565b73ffffffffffffffffffffffffffffffffffffffff16145b806119f257506119f181856112e3565b5b91505092915050565b8273ffffffffffffffffffffffffffffffffffffffff16611a1b82610bb3565b73ffffffffffffffffffffffffffffffffffffffff1614611a71576040517f08c379a0000000000000000000000000000000000000000000000000000000008152600401611a6890613106565b60405180910390fd5b600073ffffffffffffffffffffffffffffffffffffffff168273ffffffffffffffffffffffffffffffffffffffff161415611ae1576040517f08c379a0000000000000000000000000000000000000000000000000000000008152600401611ad890612fc6565b60405180910390fd5b611aec838383611e77565b611af7600082611864565b6001600460008573ffffffffffffffffffffffffffffffffffffffff1673ffffffffffffffffffffffffffffffffffffffff1681526020019081526020016000206000828254611b4791906133c2565b925050819055506001600460008473ffffffffffffffffffffffffffffffffffffffff1673ffffffffffffffffffffffffffffffffffffffff1681526020019081526020016000206000828254611b9e91906132e1565b92505081905550816003600083815260200190815260200160002060006101000a81548173ffffffffffffffffffffffffffffffffffffffff021916908373ffffffffffffffffffffffffffffffffffffffff160217905550808273ffffffffffffffffffffffffffffffffffffffff168473ffffffffffffffffffffffffffffffffffffffff167fddf252ad1be2c89b69c2b068fc378daa952ba7f163c4a11628f55a4df523b3ef60405160405180910390a4505050565b611c628484846119fb565b611c6e84848484611e7c565b611cad576040517f08c379a0000000000000000000000000000000000000000000000000000000008152600401611ca490612f66565b60405180910390fd5b50505050565b606060405180602001604052806000815250905090565b60606000821415611d12576040518060400160405280600181526020017f30000000000000000000000000000000000000000000000000000000000000008152509050611e72565b600082905060005b60008214611d44578080611d2d906134de565b915050600a82611d3d9190613337565b9150611d1a565b60008167ffffffffffffffff811115611d86577f4e487b7100000000000000000000000000000000000000000000000000000000600052604160045260246000fd5b6040519080825280601f01601f191660200182016040528015611db85781602001600182028036833780820191505090505b5090505b60008514611e6b57600182611dd191906133c2565b9150600a85611de09190613527565b6030611dec91906132e1565b60f81b818381518110611e28577f4e487b7100000000000000000000000000000000000000000000000000000000600052603260045260246000fd5b60200101907effffffffffffffffffffffffffffffffffffffffffffffffffffffffffffff1916908160001a905350600a85611e649190613337565b9450611dbc565b8093505050505b919050565b505050565b6000611e9d8473ffffffffffffffffffffffffffffffffffffffff16612013565b15612006578373ffffffffffffffffffffffffffffffffffffffff1663150b7a02611ec661185c565b8786866040518563ffffffff1660e01b8152600401611ee89493929190612ebb565b602060405180830381600087803b158015611f0257600080fd5b505af1925050508015611f3357506040513d601f19601f82011682018060405250810190611f3091906124bf565b60015b611fb6573d8060008114611f63576040519150601f19603f3d011682016040523d82523d6000602084013e611f68565b606091505b50600081511415611fae576040517f08c379a0000000000000000000000000000000000000000000000000000000008152600401611fa590612f66565b60405180910390fd5b805181602001fd5b63150b7a0260e01b7bffffffffffffffffffffffffffffffffffffffffffffffffffffffff1916817bffffffffffffffffffffffffffffffffffffffffffffffffffffffff19161491505061200b565b600190505b949350505050565b600080823b905060008111915050919050565b828054612032906134ac565b90600052602060002090601f016020900481019282612054576000855561209b565b82601f1061206d57805160ff191683800117855561209b565b8280016001018555821561209b579182015b8281111561209a57825182559160200191906001019061207f565b5b5090506120a891906120f8565b5090565b6040518060c00160405280600073ffffffffffffffffffffffffffffffffffffffff16815260200160608152602001600081526020016000815260200160008152602001600081525090565b5b808211156121115760008160009055506001016120f9565b5090565b6000612128612123846131f4565b6131c3565b90508281526020810184848401111561214057600080fd5b61214b84828561346a565b509392505050565b600061216661216184613224565b6131c3565b90508281526020810184848401111561217e57600080fd5b61218984828561346a565b509392505050565b6000813590506121a081613625565b92915050565b6000813590506121b58161363c565b92915050565b6000813590506121ca81613653565b92915050565b6000815190506121df81613653565b92915050565b600082601f8301126121f657600080fd5b8135612206848260208601612115565b91505092915050565b600082601f83011261222057600080fd5b8135612230848260208601612153565b91505092915050565b6000813590506122488161366a565b92915050565b60006020828403121561226057600080fd5b600061226e84828501612191565b91505092915050565b6000806040838503121561228a57600080fd5b600061229885828601612191565b92505060206122a985828601612191565b9150509250929050565b6000806000606084860312156122c857600080fd5b60006122d686828701612191565b93505060206122e786828701612191565b92505060406122f886828701612239565b9150509250925092565b6000806000806080858703121561231857600080fd5b600061232687828801612191565b945050602061233787828801612191565b935050604061234887828801612239565b925050606085013567ffffffffffffffff81111561236557600080fd5b612371878288016121e5565b91505092959194509250565b6000806040838503121561239057600080fd5b600061239e85828601612191565b92505060206123af858286016121a6565b9150509250929050565b60008060008060008060c087890312156123d257600080fd5b60006123e089828a01612191565b965050602087013567ffffffffffffffff8111156123fd57600080fd5b61240989828a0161220f565b955050604061241a89828a01612239565b945050606061242b89828a01612239565b935050608061243c89828a01612239565b92505060a061244d89828a01612239565b9150509295509295509295565b6000806040838503121561246d57600080fd5b600061247b85828601612191565b925050602061248c85828601612239565b9150509250929050565b6000602082840312156124a857600080fd5b60006124b6848285016121bb565b91505092915050565b6000602082840312156124d157600080fd5b60006124df848285016121d0565b91505092915050565b600080600080608085870312156124fe57600080fd5b600085013567ffffffffffffffff81111561251857600080fd5b6125248782880161220f565b945050602061253587828801612239565b935050604061254687828801612239565b925050606061255787828801612239565b91505092959194509250565b60006020828403121561257557600080fd5b600061258384828501612239565b91505092915050565b60006125988383612d4c565b905092915050565b6125a9816133f6565b82525050565b6125b8816133f6565b82525050565b60006125c982613264565b6125d38185613292565b9350836020820285016125e585613254565b8060005b858110156126215784840389528151612602858261258c565b945061260d83613285565b925060208a019950506001810190506125e9565b50829750879550505050505092915050565b61263c81613408565b82525050565b600061264d8261326f565b61265781856132a3565b9350612667818560208601613479565b61267081613614565b840191505092915050565b60006126868261327a565b61269081856132b4565b93506126a0818560208601613479565b6126a981613614565b840191505092915050565b60006126bf8261327a565b6126c981856132c5565b93506126d9818560208601613479565b6126e281613614565b840191505092915050565b60006126f88261327a565b61270281856132d6565b9350612712818560208601613479565b80840191505092915050565b600061272b6032836132c5565b91507f4552433732313a207472616e7366657220746f206e6f6e20455243373231526560008301527f63656976657220696d706c656d656e74657200000000000000000000000000006020830152604082019050919050565b60006127916026836132c5565b91507f4f776e61626c653a206e6577206f776e657220697320746865207a65726f206160008301527f64647265737300000000000000000000000000000000000000000000000000006020830152604082019050919050565b60006127f7601c836132c5565b91507f4552433732313a20746f6b656e20616c7265616479206d696e746564000000006000830152602082019050919050565b60006128376024836132c5565b91507f4552433732313a207472616e7366657220746f20746865207a65726f2061646460008301527f72657373000000000000000000000000000000000000000000000000000000006020830152604082019050919050565b600061289d6019836132c5565b91507f4552433732313a20617070726f766520746f2063616c6c6572000000000000006000830152602082019050919050565b60006128dd602c836132c5565b91507f4552433732313a206f70657261746f7220717565727920666f72206e6f6e657860008301527f697374656e7420746f6b656e00000000000000000000000000000000000000006020830152604082019050919050565b60006129436038836132c5565b91507f4552433732313a20617070726f76652063616c6c6572206973206e6f74206f7760008301527f6e6572206e6f7220617070726f76656420666f7220616c6c00000000000000006020830152604082019050919050565b60006129a9602a836132c5565b91507f4552433732313a2062616c616e636520717565727920666f7220746865207a6560008301527f726f2061646472657373000000000000000000000000000000000000000000006020830152604082019050919050565b6000612a0f6029836132c5565b91507f4552433732313a206f776e657220717565727920666f72206e6f6e657869737460008301527f656e7420746f6b656e00000000000000000000000000000000000000000000006020830152604082019050919050565b6000612a75602e836132c5565b91507f45524337323155524953746f726167653a2055524920736574206f66206e6f6e60008301527f6578697374656e7420746f6b656e0000000000000000000000000000000000006020830152604082019050919050565b6000612adb6020836132c5565b91507f4552433732313a206d696e7420746f20746865207a65726f20616464726573736000830152602082019050919050565b6000612b1b602c836132c5565b91507f4552433732313a20617070726f76656420717565727920666f72206e6f6e657860008301527f697374656e7420746f6b656e00000000000000000000000000000000000000006020830152604082019050919050565b6000612b816020836132c5565b91507f4f776e61626c653a2063616c6c6572206973206e6f7420746865206f776e65726000830152602082019050919050565b6000612bc16029836132c5565b91507f4552433732313a207472616e73666572206f6620746f6b656e2074686174206960008301527f73206e6f74206f776e00000000000000000000000000000000000000000000006020830152604082019050919050565b6000612c27602f836132c5565b91507f4552433732314d657461646174613a2055524920717565727920666f72206e6f60008301527f6e6578697374656e7420746f6b656e00000000000000000000000000000000006020830152604082019050919050565b6000612c8d6021836132c5565b91507f4552433732313a20617070726f76616c20746f2063757272656e74206f776e6560008301527f72000000000000000000000000000000000000000000000000000000000000006020830152604082019050919050565b6000612cf36031836132c5565b91507f4552433732313a207472616e736665722063616c6c6572206973206e6f74206f60008301527f776e6572206e6f7220617070726f7665640000000000000000000000000000006020830152604082019050919050565b600060c083016000830151612d6460008601826125a0565b5060208301518482036020860152612d7c828261267b565b9150506040830151612d916040860182612e5e565b506060830151612da46060860182612e5e565b506080830151612db76080860182612e5e565b5060a0830151612dca60a0860182612e5e565b508091505092915050565b600060c083016000830151612ded60008601826125a0565b5060208301518482036020860152612e05828261267b565b9150506040830151612e1a6040860182612e5e565b506060830151612e2d6060860182612e5e565b506080830151612e406080860182612e5e565b5060a0830151612e5360a0860182612e5e565b508091505092915050565b612e6781613460565b82525050565b612e7681613460565b82525050565b6000612e8882856126ed565b9150612e9482846126ed565b91508190509392505050565b6000602082019050612eb560008301846125af565b92915050565b6000608082019050612ed060008301876125af565b612edd60208301866125af565b612eea6040830185612e6d565b8181036060830152612efc8184612642565b905095945050505050565b60006020820190508181036000830152612f2181846125be565b905092915050565b6000602082019050612f3e6000830184612633565b92915050565b60006020820190508181036000830152612f5e81846126b4565b905092915050565b60006020820190508181036000830152612f7f8161271e565b9050919050565b60006020820190508181036000830152612f9f81612784565b9050919050565b60006020820190508181036000830152612fbf816127ea565b9050919050565b60006020820190508181036000830152612fdf8161282a565b9050919050565b60006020820190508181036000830152612fff81612890565b9050919050565b6000602082019050818103600083015261301f816128d0565b9050919050565b6000602082019050818103600083015261303f81612936565b9050919050565b6000602082019050818103600083015261305f8161299c565b9050919050565b6000602082019050818103600083015261307f81612a02565b9050919050565b6000602082019050818103600083015261309f81612a68565b9050919050565b600060208201905081810360008301526130bf81612ace565b9050919050565b600060208201905081810360008301526130df81612b0e565b9050919050565b600060208201905081810360008301526130ff81612b74565b9050919050565b6000602082019050818103600083015261311f81612bb4565b9050919050565b6000602082019050818103600083015261313f81612c1a565b9050919050565b6000602082019050818103600083015261315f81612c80565b9050919050565b6000602082019050818103600083015261317f81612ce6565b9050919050565b600060208201905081810360008301526131a08184612dd5565b905092915050565b60006020820190506131bd6000830184612e6d565b92915050565b6000604051905081810181811067ffffffffffffffff821117156131ea576131e96135e5565b5b8060405250919050565b600067ffffffffffffffff82111561320f5761320e6135e5565b5b601f19601f8301169050602081019050919050565b600067ffffffffffffffff82111561323f5761323e6135e5565b5b601f19601f8301169050602081019050919050565b6000819050602082019050919050565b600081519050919050565b600081519050919050565b600081519050919050565b6000602082019050919050565b600082825260208201905092915050565b600082825260208201905092915050565b600082825260208201905092915050565b600082825260208201905092915050565b600081905092915050565b60006132ec82613460565b91506132f783613460565b9250827fffffffffffffffffffffffffffffffffffffffffffffffffffffffffffffffff0382111561332c5761332b613558565b5b828201905092915050565b600061334282613460565b915061334d83613460565b92508261335d5761335c613587565b5b828204905092915050565b600061337382613460565b915061337e83613460565b9250817fffffffffffffffffffffffffffffffffffffffffffffffffffffffffffffffff04831182151516156133b7576133b6613558565b5b828202905092915050565b60006133cd82613460565b91506133d883613460565b9250828210156133eb576133ea613558565b5b828203905092915050565b600061340182613440565b9050919050565b60008115159050919050565b60007fffffffff0000000000000000000000000000000000000000000000000000000082169050919050565b600073ffffffffffffffffffffffffffffffffffffffff82169050919050565b6000819050919050565b82818337600083830152505050565b60005b8381101561349757808201518184015260208101905061347c565b838111156134a6576000848401525b50505050565b600060028204905060018216806134c457607f821691505b602082108114156134d8576134d76135b6565b5b50919050565b60006134e982613460565b91507fffffffffffffffffffffffffffffffffffffffffffffffffffffffffffffffff82141561351c5761351b613558565b5b600182019050919050565b600061353282613460565b915061353d83613460565b92508261354d5761354c613587565b5b828206905092915050565b7f4e487b7100000000000000000000000000000000000000000000000000000000600052601160045260246000fd5b7f4e487b7100000000000000000000000000000000000000000000000000000000600052601260045260246000fd5b7f4e487b7100000000000000000000000000000000000000000000000000000000600052602260045260246000fd5b7f4e487b7100000000000000000000000000000000000000000000000000000000600052604160045260246000fd5b6000601f19601f8301169050919050565b61362e816133f6565b811461363957600080fd5b50565b61364581613408565b811461365057600080fd5b50565b61365c81613414565b811461366757600080fd5b50565b61367381613460565b811461367e57600080fd5b5056fea2646970667358221220f91707b48261f027969bf986e81e70711f3a4ee9cfcc20f336a7ae2984aa142864736f6c63430008000033",
  "immutableReferences": {},
  "source": "// SPDX-License-Identifier: MIT\n\npragma solidity ^0.8.0;\n\nimport \"./External/ERC721.sol\";\nimport \"./External/Counters.sol\";\nimport \"./External/SafeMath.sol\";\nimport \"./External/Ownable.sol\";\n\n\ncontract InvoiceNFT is ERC721,Ownable {\n    \n    using Counters for Counters.Counter;\n    Counters.Counter private _tokenIds;\n    \n    \n    struct Invoice {\n\n      address owner;\n      string tokenURI;\n      uint256 tokenId;\n      uint256 InvoiceValue;\n      uint256 LoanAmount;\n      uint256 Duration;\n     \n    }\n    \n    mapping(uint256 => Invoice) private IdToInvoice;\n    \n    \n    Invoice[] internal AllInvoices;\n    \n    // token exist\n    \n    mapping(uint256 => bool) public exists;\n    \n    uint256[] tokenIds;\n    \n    address InvoicePool;\n    \n  \n   // constructor\n\n    constructor () ERC721(\"Invoice\",\"INVT\") {\n        \n        // setting base URI\n        \n        _baseURI();\n\n    }\n   \n   \n   //  Minting a token\n   \n   function mint(\n       \n    string memory _tokenURI,\n    uint256 _LoanAmount,\n    uint256 _InvoiceValue,\n    uint256 _duration\n    \n    ) public returns (uint256) {\n       \n       // Incremnting total supply\n       \n        _tokenIds.increment();\n        \n        uint256 _tokenId = _tokenIds.current();\n       \n       _mint(msg.sender, _tokenId);               // mint\n\n       _setTokenURI(_tokenId, _tokenURI);         // setting tokenURI\n       \n      \n       uint256 duration = block.timestamp + (_duration * 1 days);\n       \n       \n       Metadata(msg.sender,_tokenURI,_tokenId,_InvoiceValue,_LoanAmount,duration);\n       \n        \n       return _tokenId;                         // tokenId of an nft \n    \n    }\n    \n    \n    function Metadata(\n        \n        \n      address _owner,\n      string memory _tokenURI,\n      uint256 _tokenId,\n      uint256 _InvoiceValue,\n      uint256 _LoanAmount,\n      uint256 _Duration\n    \n            \n        ) public {\n            \n            \n            \n            Invoice memory _Invoice  = Invoice ({\n                \n                owner:_owner,\n                tokenURI:_tokenURI,\n                tokenId:_tokenId,\n                InvoiceValue:_InvoiceValue,\n                LoanAmount:_LoanAmount,\n                Duration:_Duration\n                \n            });\n            \n            \n            IdToInvoice[_tokenId] = _Invoice;\n            \n            \n           // updating array of AllInvoice   \n            \n            \n             AllInvoices.push(_Invoice);\n           \n           \n           // updating array of tokenIds\n           \n           \n             tokenIds.push(_tokenId);\n           \n           \n           // updating xistence of tokenId\n           \n           \n             exists[_tokenId]== true;\n         \n           \n        }\n        \n        \n        \n    function viewInvoiceById (uint256 _tokenId) public view returns (Invoice memory ) {\n\n       Invoice memory c = IdToInvoice[_tokenId];\n\n       return c;\n    }\n\n  \n    function getAllInvoices() public view returns (Invoice[] memory)  {\n        \n        \n        return AllInvoices;\n        \n    }\n    \n    \n    \n    \n    \n    \n    \n    \n    \n    \n    \n    \n    \n    \n}    ",
  "sourcePath": "/home/i0068/spathion/contracts/InvoiceNFT.sol",
  "compiler": {
    "name": "solc",
    "version": "0.8.0+commit.c7dfd78e.Emscripten.clang"
  },
  "schemaVersion": "3.4.3",
  "updatedAt": "2021-11-17T14:21:18.552Z",
  "devdoc": {
    "kind": "dev",
    "methods": {
      "approve(address,uint256)": {
        "details": "See {IERC721-approve}."
      },
      "balanceOf(address)": {
        "details": "See {IERC721-balanceOf}."
      },
      "getApproved(uint256)": {
        "details": "See {IERC721-getApproved}."
      },
      "isApprovedForAll(address,address)": {
        "details": "See {IERC721-isApprovedForAll}."
      },
      "name()": {
        "details": "See {IERC721Metadata-name}."
      },
      "owner()": {
        "details": "Returns the address of the current owner."
      },
      "ownerOf(uint256)": {
        "details": "See {IERC721-ownerOf}."
      },
      "renounceOwnership()": {
        "details": "Leaves the contract without owner. It will not be possible to call `onlyOwner` functions anymore. Can only be called by the current owner. NOTE: Renouncing ownership will leave the contract without an owner, thereby removing any functionality that is only available to the owner."
      },
      "safeTransferFrom(address,address,uint256)": {
        "details": "See {IERC721-safeTransferFrom}."
      },
      "safeTransferFrom(address,address,uint256,bytes)": {
        "details": "See {IERC721-safeTransferFrom}."
      },
      "setApprovalForAll(address,bool)": {
        "details": "See {IERC721-setApprovalForAll}."
      },
      "supportsInterface(bytes4)": {
        "details": "See {IERC165-supportsInterface}."
      },
      "symbol()": {
        "details": "See {IERC721Metadata-symbol}."
      },
      "tokenURI(uint256)": {
        "details": "See {IERC721Metadata-tokenURI}."
      },
      "transferFrom(address,address,uint256)": {
        "details": "See {IERC721-transferFrom}."
      },
      "transferOwnership(address)": {
        "details": "Transfers ownership of the contract to a new account (`newOwner`). Can only be called by the current owner."
      }
    },
    "version": 1
  },
  "userdoc": {
    "kind": "user",
    "methods": {},
    "version": 1
  }
}