{
  "contractName": "InvoicePool",
  "abi": [
    {
      "inputs": [
        {
          "internalType": "address",
          "name": "_Invoicenft",
          "type": "address"
        }
      ],
      "stateMutability": "nonpayable",
      "type": "constructor"
    },
    {
      "inputs": [
        {
          "internalType": "uint256",
          "name": "_tokenId",
          "type": "uint256"
        }
      ],
      "name": "deposit",
      "outputs": [],
      "stateMutability": "nonpayable",
      "type": "function"
    }
  ],
  "bytecode": "0x608060405234801561001057600080fd5b5060405161033338038061033383398181016040528101906100329190610096565b600160008190555080600260006101000a81548173ffffffffffffffffffffffffffffffffffffffff021916908373ffffffffffffffffffffffffffffffffffffffff16021790555050610108565b600081519050610090816100f1565b92915050565b6000602082840312156100a857600080fd5b60006100b684828501610081565b91505092915050565b60006100ca826100d1565b9050919050565b600073ffffffffffffffffffffffffffffffffffffffff82169050919050565b6100fa816100bf565b811461010557600080fd5b50565b61021c806101176000396000f3fe608060405234801561001057600080fd5b506004361061002b5760003560e01c8063b6b55f2514610030575b600080fd5b61004a60048036038101906100459190610115565b61004c565b005b61005660016100ea565b600260009054906101000a900473ffffffffffffffffffffffffffffffffffffffff1673ffffffffffffffffffffffffffffffffffffffff166323b872dd3330846040518463ffffffff1660e01b81526004016100b59392919061015c565b600060405180830381600087803b1580156100cf57600080fd5b505af11580156100e3573d6000803e3d6000fd5b5050505050565b6001816000016000828254019250508190555050565b60008135905061010f816101cf565b92915050565b60006020828403121561012757600080fd5b600061013584828501610100565b91505092915050565b61014781610193565b82525050565b610156816101c5565b82525050565b6000606082019050610171600083018661013e565b61017e602083018561013e565b61018b604083018461014d565b949350505050565b600061019e826101a5565b9050919050565b600073ffffffffffffffffffffffffffffffffffffffff82169050919050565b6000819050919050565b6101d8816101c5565b81146101e357600080fd5b5056fea26469706673582212204c8f214b51ea2272531a5549fb353fd11f2bfb9ae032035f97a5a619a9484a8e64736f6c63430008000033",
  "immutableReferences": {},
  "source": "// SPDX-License-Identifier: MIT\n\npragma solidity ^0.8.0;\n\nimport \"./InvoiceNFT.sol\";\nimport \"./External/Counters.sol\";\nimport \"./External/ReentrancyGuard.sol\";\nimport \"./External/ERC721.sol\";\n\n\ncontract InvoicePool is ReentrancyGuard {\n    \n    \n    using Counters for Counters.Counter;\n    \n    Counters.Counter private DepositedInvoices;\n    \n    IERC721 Invoicenft;\n   \n    \n    constructor(address _Invoicenft) {\n        \n        \n      Invoicenft = IERC721(_Invoicenft);\n       \n    \n        \n    }\n    \n    \n    function deposit( uint256 _tokenId)  public {\n        \n        \n       DepositedInvoices.increment();\n        \n        \n       IERC721(Invoicenft).transferFrom(msg.sender, address(this),_tokenId);\n      \n        \n    }\n    \n    \n    \n    \n    \n    \n  \n  \n}",
  "sourcePath": "/home/i0068/spathion/contracts/InvoicePool.sol",
  "compiler": {
    "name": "solc",
    "version": "0.8.0+commit.c7dfd78e.Emscripten.clang"
  },
  "schemaVersion": "3.4.3",
  "updatedAt": "2021-11-17T14:21:18.564Z",
  "devdoc": {
    "kind": "dev",
    "methods": {},
    "version": 1
  },
  "userdoc": {
    "kind": "user",
    "methods": {},
    "version": 1
  }
}