{
  "contractName": "LendingPool",
  "abi": [
    {
      "inputs": [
        {
          "internalType": "address",
          "name": "_USDT",
          "type": "address"
        }
      ],
      "stateMutability": "nonpayable",
      "type": "constructor"
    },
    {
      "anonymous": false,
      "inputs": [
        {
          "indexed": true,
          "internalType": "address",
          "name": "previousOwner",
          "type": "address"
        },
        {
          "indexed": true,
          "internalType": "address",
          "name": "newOwner",
          "type": "address"
        }
      ],
      "name": "OwnershipTransferred",
      "type": "event"
    },
    {
      "anonymous": false,
      "inputs": [
        {
          "indexed": false,
          "internalType": "address",
          "name": "",
          "type": "address"
        },
        {
          "indexed": false,
          "internalType": "uint256",
          "name": "",
          "type": "uint256"
        }
      ],
      "name": "Received",
      "type": "event"
    },
    {
      "inputs": [
        {
          "internalType": "address",
          "name": "",
          "type": "address"
        }
      ],
      "name": "USDT_Borrowed",
      "outputs": [
        {
          "internalType": "uint256",
          "name": "",
          "type": "uint256"
        }
      ],
      "stateMutability": "view",
      "type": "function"
    },
    {
      "inputs": [
        {
          "internalType": "address",
          "name": "",
          "type": "address"
        }
      ],
      "name": "USDT_Deposited",
      "outputs": [
        {
          "internalType": "uint256",
          "name": "",
          "type": "uint256"
        }
      ],
      "stateMutability": "view",
      "type": "function"
    },
    {
      "inputs": [],
      "name": "owner",
      "outputs": [
        {
          "internalType": "address",
          "name": "",
          "type": "address"
        }
      ],
      "stateMutability": "view",
      "type": "function"
    },
    {
      "inputs": [],
      "name": "renounceOwnership",
      "outputs": [],
      "stateMutability": "nonpayable",
      "type": "function"
    },
    {
      "inputs": [
        {
          "internalType": "address",
          "name": "newOwner",
          "type": "address"
        }
      ],
      "name": "transferOwnership",
      "outputs": [],
      "stateMutability": "nonpayable",
      "type": "function"
    },
    {
      "stateMutability": "payable",
      "type": "receive"
    },
    {
      "inputs": [
        {
          "internalType": "uint256",
          "name": "amount",
          "type": "uint256"
        }
      ],
      "name": "Deposit",
      "outputs": [],
      "stateMutability": "nonpayable",
      "type": "function"
    },
    {
      "inputs": [
        {
          "internalType": "uint256",
          "name": "amount",
          "type": "uint256"
        }
      ],
      "name": "withdraw",
      "outputs": [],
      "stateMutability": "nonpayable",
      "type": "function"
    }
  ],
  "bytecode": "0x608060405234801561001057600080fd5b50604051610e26380380610e2683398181016040528101906100329190610144565b600061004261012760201b60201c565b9050806000806101000a81548173ffffffffffffffffffffffffffffffffffffffff021916908373ffffffffffffffffffffffffffffffffffffffff1602179055508073ffffffffffffffffffffffffffffffffffffffff16600073ffffffffffffffffffffffffffffffffffffffff167f8be0079c531659141344cd1fd0a4f28419497f9722a3daafe3b4186f6b6457e060405160405180910390a35080600160006101000a81548173ffffffffffffffffffffffffffffffffffffffff021916908373ffffffffffffffffffffffffffffffffffffffff160217905550506101b6565b600033905090565b60008151905061013e8161019f565b92915050565b60006020828403121561015657600080fd5b60006101648482850161012f565b91505092915050565b60006101788261017f565b9050919050565b600073ffffffffffffffffffffffffffffffffffffffff82169050919050565b6101a88161016d565b81146101b357600080fd5b50565b610c61806101c56000396000f3fe6080604052600436106100745760003560e01c8063715018a61161004e578063715018a6146101485780638da5cb5b1461015f578063e4ccdaec1461018a578063f2fde38b146101c7576100b4565b80632e1a7d4d146100b957806346fce735146100e25780634d6ce1e51461011f576100b4565b366100b4577f88a5966d370b9919b20f3e2c13ff65706f196a4e32cc2c12bf57088f8852587433346040516100aa929190610a50565b60405180910390a1005b600080fd5b3480156100c557600080fd5b506100e060048036038101906100db9190610911565b6101f0565b005b3480156100ee57600080fd5b50610109600480360381019061010491906108bf565b6103ab565b6040516101169190610ab9565b60405180910390f35b34801561012b57600080fd5b5061014660048036038101906101419190610911565b6103c3565b005b34801561015457600080fd5b5061015d610528565b005b34801561016b57600080fd5b50610174610662565b60405161018191906109fe565b60405180910390f35b34801561019657600080fd5b506101b160048036038101906101ac91906108bf565b61068b565b6040516101be9190610ab9565b60405180910390f35b3480156101d357600080fd5b506101ee60048036038101906101e991906108bf565b6106a3565b005b80600260003373ffffffffffffffffffffffffffffffffffffffff1673ffffffffffffffffffffffffffffffffffffffff16815260200190815260200160002054101561023c57600080fd5b6000600260003373ffffffffffffffffffffffffffffffffffffffff1673ffffffffffffffffffffffffffffffffffffffff1681526020019081526020016000205490506000610295838361084c90919063ffffffff16565b9050600160009054906101000a900473ffffffffffffffffffffffffffffffffffffffff1673ffffffffffffffffffffffffffffffffffffffff1663a9059cbb33856040518363ffffffff1660e01b81526004016102f4929190610a50565b602060405180830381600087803b15801561030e57600080fd5b505af1158015610322573d6000803e3d6000fd5b505050506040513d601f19601f8201168201806040525081019061034691906108e8565b5080600260003373ffffffffffffffffffffffffffffffffffffffff1673ffffffffffffffffffffffffffffffffffffffff168152602001908152602001600020819055506103a08360035461084c90919063ffffffff16565b600381905550505050565b60026020528060005260406000206000915090505481565b600160009054906101000a900473ffffffffffffffffffffffffffffffffffffffff1673ffffffffffffffffffffffffffffffffffffffff166323b872dd3330846040518463ffffffff1660e01b815260040161042293929190610a19565b602060405180830381600087803b15801561043c57600080fd5b505af1158015610450573d6000803e3d6000fd5b505050506040513d601f19601f8201168201806040525081019061047491906108e8565b506104c781600260003373ffffffffffffffffffffffffffffffffffffffff1673ffffffffffffffffffffffffffffffffffffffff1681526020019081526020016000205461086290919063ffffffff16565b600260003373ffffffffffffffffffffffffffffffffffffffff1673ffffffffffffffffffffffffffffffffffffffff1681526020019081526020016000208190555061051f8160035461086290919063ffffffff16565b60038190555050565b610530610878565b73ffffffffffffffffffffffffffffffffffffffff1661054e610662565b73ffffffffffffffffffffffffffffffffffffffff16146105a4576040517f08c379a000000000000000000000000000000000000000000000000000000000815260040161059b90610a99565b60405180910390fd5b600073ffffffffffffffffffffffffffffffffffffffff1660008054906101000a900473ffffffffffffffffffffffffffffffffffffffff1673ffffffffffffffffffffffffffffffffffffffff167f8be0079c531659141344cd1fd0a4f28419497f9722a3daafe3b4186f6b6457e060405160405180910390a360008060006101000a81548173ffffffffffffffffffffffffffffffffffffffff021916908373ffffffffffffffffffffffffffffffffffffffff160217905550565b60008060009054906101000a900473ffffffffffffffffffffffffffffffffffffffff16905090565b60046020528060005260406000206000915090505481565b6106ab610878565b73ffffffffffffffffffffffffffffffffffffffff166106c9610662565b73ffffffffffffffffffffffffffffffffffffffff161461071f576040517f08c379a000000000000000000000000000000000000000000000000000000000815260040161071690610a99565b60405180910390fd5b600073ffffffffffffffffffffffffffffffffffffffff168173ffffffffffffffffffffffffffffffffffffffff16141561078f576040517f08c379a000000000000000000000000000000000000000000000000000000000815260040161078690610a79565b60405180910390fd5b8073ffffffffffffffffffffffffffffffffffffffff1660008054906101000a900473ffffffffffffffffffffffffffffffffffffffff1673ffffffffffffffffffffffffffffffffffffffff167f8be0079c531659141344cd1fd0a4f28419497f9722a3daafe3b4186f6b6457e060405160405180910390a3806000806101000a81548173ffffffffffffffffffffffffffffffffffffffff021916908373ffffffffffffffffffffffffffffffffffffffff16021790555050565b6000818361085a9190610b3b565b905092915050565b600081836108709190610ae5565b905092915050565b600033905090565b60008135905061088f81610be6565b92915050565b6000815190506108a481610bfd565b92915050565b6000813590506108b981610c14565b92915050565b6000602082840312156108d157600080fd5b60006108df84828501610880565b91505092915050565b6000602082840312156108fa57600080fd5b600061090884828501610895565b91505092915050565b60006020828403121561092357600080fd5b6000610931848285016108aa565b91505092915050565b61094381610b6f565b82525050565b6000610956602683610ad4565b91507f4f776e61626c653a206e6577206f776e657220697320746865207a65726f206160008301527f64647265737300000000000000000000000000000000000000000000000000006020830152604082019050919050565b60006109bc602083610ad4565b91507f4f776e61626c653a2063616c6c6572206973206e6f7420746865206f776e65726000830152602082019050919050565b6109f881610bad565b82525050565b6000602082019050610a13600083018461093a565b92915050565b6000606082019050610a2e600083018661093a565b610a3b602083018561093a565b610a4860408301846109ef565b949350505050565b6000604082019050610a65600083018561093a565b610a7260208301846109ef565b9392505050565b60006020820190508181036000830152610a9281610949565b9050919050565b60006020820190508181036000830152610ab2816109af565b9050919050565b6000602082019050610ace60008301846109ef565b92915050565b600082825260208201905092915050565b6000610af082610bad565b9150610afb83610bad565b9250827fffffffffffffffffffffffffffffffffffffffffffffffffffffffffffffffff03821115610b3057610b2f610bb7565b5b828201905092915050565b6000610b4682610bad565b9150610b5183610bad565b925082821015610b6457610b63610bb7565b5b828203905092915050565b6000610b7a82610b8d565b9050919050565b60008115159050919050565b600073ffffffffffffffffffffffffffffffffffffffff82169050919050565b6000819050919050565b7f4e487b7100000000000000000000000000000000000000000000000000000000600052601160045260246000fd5b610bef81610b6f565b8114610bfa57600080fd5b50565b610c0681610b81565b8114610c1157600080fd5b50565b610c1d81610bad565b8114610c2857600080fd5b5056fea2646970667358221220c6b182384fac12b434f86bfc37cf5f74c4bf4245f518b85aa70cfa46448f2a9d64736f6c63430008000033",
  "immutableReferences": {},
  "source": "// SPDX-License-Identifier: GPL-3.0\n\npragma solidity ^0.8.0;\n\nimport \"./External/IERC20.sol\";\nimport \"./External/Ownable.sol\";\nimport \"./External/SafeMath.sol\";\nimport \"./External/Pausable.sol\";\nimport \"./External/ReentrancyGuard.sol\";\n\ncontract LendingPool is Ownable {\n    \nusing SafeMath for uint256;    \n\nIERC20 private USDT; \n\n //  user USDT\n\nmapping(address => uint256) public USDT_Deposited;\n\n// Total deposited usdt\n\nuint256 private TotalUSDT_Deposited;\n\n// Borrowe usdt of the user\n\nmapping(address => uint256) public USDT_Borrowed;\n\n// Total Borrowed usdt\n\nuint256 private TotalUSDT_Borrowed;\n\nevent Received(address,uint);\n\n\nconstructor(address _USDT) {\n    \n    USDT = IERC20(_USDT);\n}\n\n\nreceive() external payable {\n    \n   emit Received(msg.sender,msg.value);\n\n}\n\n\n// Deposit Usdt\n\n\nfunction Deposit(uint256 amount) public  {\n    \n\n      USDT.transferFrom(msg.sender, address(this), amount);\n      \n      // updating user Balances\n     \n      USDT_Deposited[msg.sender] = USDT_Deposited[msg.sender].add(amount);\n      \n      // updating total balances\n      \n      TotalUSDT_Deposited = TotalUSDT_Deposited.add(amount);\n     \n    \n}\n\n\n// withdraw \n\n\nfunction withdraw(uint256 amount) external  {\n    \n    \n    require (USDT_Deposited[msg.sender] >= amount);\n    \n      // starting balance\n      \n      uint InitialBalance = USDT_Deposited[msg.sender];\n    \n      // Final balance\n      \n      uint FinalBalance = InitialBalance.sub(amount);\n    \n      // Transfer amount\n      \n      USDT.transfer(msg.sender,amount);\n      \n      // Reset staking Balances\n      \n      USDT_Deposited[msg.sender] = FinalBalance;\n      \n      // updating total Balances\n      \n      TotalUSDT_Deposited = TotalUSDT_Deposited.sub(amount);\n      \n    \n    \n}\n\n\n\n\n\n\n    \n}\n",
  "sourcePath": "/home/i0068/spathion/contracts/LendingPool.sol",
  "compiler": {
    "name": "solc",
    "version": "0.8.0+commit.c7dfd78e.Emscripten.clang"
  },
  "schemaVersion": "3.4.3",
  "updatedAt": "2021-11-17T14:21:18.566Z",
  "devdoc": {
    "kind": "dev",
    "methods": {
      "owner()": {
        "details": "Returns the address of the current owner."
      },
      "renounceOwnership()": {
        "details": "Leaves the contract without owner. It will not be possible to call `onlyOwner` functions anymore. Can only be called by the current owner. NOTE: Renouncing ownership will leave the contract without an owner, thereby removing any functionality that is only available to the owner."
      },
      "transferOwnership(address)": {
        "details": "Transfers ownership of the contract to a new account (`newOwner`). Can only be called by the current owner."
      }
    },
    "version": 1
  },
  "userdoc": {
    "kind": "user",
    "methods": {},
    "version": 1
  }
}